:100000000000022091010000BD010000BD010000C0
:10001000BD010000BD010000BD010000BD010000E8
:10002000BD010000BD010000BD010000BD010000D8
:10003000BD010000BC010000BD010000BD010000C9
:10004000BD010000D5040000152B0000BD0100001B
:10005000BD010000BD010000BD010000BD010000A8
:10006000BD010000BD010000BD010000FD04000055
:10007000BD010000BD010000BD010000BD01000088
:10008000BD010000BD010000BD010000BD01000078
:10009000BD010000BD010000BD010000BD01000068
:1000A000BD010000BD010000BD010000BD01000058
:1000B000BD010000BD010000BD010000BD01000048
:1000C000BD010000BD010000BD010000BD01000038
:1000D000BD010000BD010000BD01000010B5054CD0
:1000E000237833B9044B13B10448AFF300800123E4
:1000F000237010BD3801002000000000A034000073
:1001000008B5034B1BB103490348AFF3008008BD9A
:10011000000000003C010020A0340000154B002B23
:1001200008BF134B9D46A3F5803A00218B460F462E
:100130001348144A121A02F045FF0F4B002B00D04F
:1001400098470E4B002B00D0984700200021040058
:100150000D000D48002802D00C48AFF3008002F0DB
:100160000DFF2000290002F001FD02F0F3FE00BFA8
:100170000000080000000220000000000000000055
:1001800038010020A801002000000000000000004D
:10019000064880470649074A074B9A42BEBF51F8B6
:1001A000040B42F8040BF8E7FFF7B8FF3503000033
:1001B000AC3400000000002038010020FEE700BF42
:1001C00080B400AF034BDB6C1B0EDBB21846BD46A0
:1001D00080BC7047B081E00F80B582B000AF00F006
:1001E0001FF87860074B5B6803F00F037A6822FA08
:1001F00003F37B60044A7B6813607B68184608370A
:10020000BD4680BD00800C400800002080B400AFD7
:10021000024B1846BD4680BC704700BF006CDC0234
:1002200080B582B000AF334BDB6A03F47053B3F593
:10023000805F0AD0B3F5005F03D0B3F5006F08D03C
:100240000BE02D4B1B687B6047E04FF400437B6065
:1002500043E02A4B1B687B603FE0264BDB6803F4DE
:10026000E063B3F5007F1BD0B3F5007F05D8002B0A
:1002700024D0B3F5807F16D02BE0B3F5806F09D082
:10028000B3F5A06F03D0B3F5407F06D021E01C4B3F
:100290007B6021E01B4B7B601EE01B4B7B601BE007
:1002A0001A4B7B6018E0FFF78BFF0346122B02D935
:1002B000174B7B6010E0174B7B600DE0FFF780FF72
:1002C0000346122B02D9144B7B6005E0134B7B6075
:1002D00002E000237B6000BF00BF064B1B689B0B46
:1002E00003F0070301337A68B2FBF3F318460837CB
:1002F000BD4680BD00800C400400002000000020AE
:10030000003FAB01406F4001809FD500C0D8A700DF
:1003100040B56400C0CF6A00804F120040420F0019
:1003200080B400AF024B1B681846BD4680BC7047C6
:100330000000002080B400AF034B044A9A6000BF65
:10034000BD4680BC704700BF00ED00E0000000002B
:1003500080B483B000AF0346FB7197F90730002BE0
:100360000BDBFB7903F01F02064997F907305B09A5
:10037000012000FA02F241F8232000BF0C37BD46ED
:1003800080BC704700E100E080B483B000AF03465A
:10039000FB7197F90730002B0CDBFB7903F01F0290
:1003A000074997F907305B09012000FA02F2603330
:1003B00041F8232000BF0C37BD4680BC704700BF0A
:1003C00000E100E080B483B000AF7860044A7B684D
:1003D000C2F81C3100BF0C37BD4680BC704700BF5F
:1003E0000060004080B483B000AF074BD3F81031F9
:1003F0007B60054BD3F814217B68134018460C37FB
:10040000BD4680BC704700BF0060004080B485B02E
:1004100000AF78607B68FB60FB6893FAA3F3BB6076
:10042000BB68B3FA83F3DBB218461437BD4680BC11
:10043000704780B500AF0B20FFF7A6FF0B20FFF73A
:1004400087FF0120FFF7A0FF0120FFF781FF00BF1A
:1004500080BD000080B584B000AF03463960FB71F9
:1004600000F0FAFFF860FB7905493A6841F823206B
:10047000F86801F000F800BF1037BD4680BD00BF2E
:100480005401002080B584B000AF786019E078682E
:10049000FFF7BCFFF8600122FB6802FA03F3DB43BD
:1004A0001A467B6813407B60094AFB6852F8233088
:1004B000BB60BB68002B04D0FB68DAB2BB68104697
:1004C00098477B68002BE2D100BF1037BD4680BD46
:1004D0005401002080B582B000AFFFF783FF0246D1
:1004E00045F2555313407B607868FFF76BFF7868DF
:1004F000FFF7C8FF00BF0837BD4680BD80B582B09A
:1005000000AFFFF76FFF02464AF6AA2313407B6055
:100510007868FFF757FF7868FFF7B4FF00BF083728
:10052000BD4680BD80B483B000AF0346FB71FB794C
:10053000002B03D0054B01221A6602E0034B002278
:100540001A6600BF0C37BD4680BC704700A008404B
:1005500080B483B000AF786000BF054B5A6E7B68F3
:100560001340002BF9D100BF0C37BD4680BC70474B
:1005700000A0084080B483B000AF7860054B9A6A51
:100580007B68DB43034913408B6200BF0C37BD46D9
:1005900080BC704700A0084080B500AF0022284909
:1005A000002001F033FB00222549012001F02EFB41
:1005B00000222349022001F029FB002220490320C8
:1005C00001F024FB00221E49042001F01FFB002241
:1005D0001B49052001F01AFB00221949062001F0F1
:1005E00015FB00221649072001F010FB0022FF2115
:1005F000002001F0D7FB0022FF21012001F0D2FBF7
:100600000022FF21022001F0CDFB0022FF21032068
:1006100001F0C8FB0022FF21042001F0C3FB0022EF
:10062000FF21052001F0BEFB0022FF21062001F082
:10063000B9FB0022FF21072001F0B4FB00BF80BD01
:1006400000F00FF080B582B000AF0346FB710121CE
:10065000244800F0A1FC0321234800F007FD4021BD
:10066000224800F017FB012000F06AFE012120481B
:1006700000F092FC4FF0FF30FFF77CFF1D4801F0C7
:1006800043F90121082001F0A7F90121102001F010
:10069000A3F90121802001F09FF901214FF480701E
:1006A00001F09AF901214FF4007001F095F9FB79FE
:1006B000002B0DD04FF4402001F03CFC4FF4803073
:1006C00001F068F90C4BDB6F0B4A43F00803D3676A
:1006D000FFF762FF4FF0FF30FFF73AFF00BF083728
:1006E000BD4680BDD0433E0002001E0080002A00AF
:1006F00000362C001432000000800C4080B58AB017
:1007000000AF78607B6842F20E72934202DD42F2E3
:100710000F737B607B6813F57A7F01DC3D4B7B6058
:100720007B68002B06DA786802F010FC7860012301
:10073000BB6101E00023BB614FF0FF30FFF708FF12
:100740000120FFF7EFFE00F06DF80123FB610023AD
:100750003B6254E07A68FB6992FBF3F22E4B83FB19
:1007600002139910D317C91A0B469B000B445B0068
:10077000D11A0B46FB82BB69012B04D13B6A032BC8
:1007800001D11023FB82FB8A244A32F81330BB824A
:1007900000237B6227E022493A6A1346DB009B1A5A
:1007A0005B00CA187B6A1344CB331B783B611C493E
:1007B0003A6A1346DB009B1A5B00CA187B6A134433
:1007C000C4331B78FB60BA8A7B6A42FA03F303F0F6
:1007D0000103002B04D001223969F86801F01CF9EB
:1007E0007B6A01337B627B6A062BD4DDFA69134690
:1007F0009B0013445B00FB613B6A01333B623B6A35
:10080000032BA7DD0020FFF78DFE00BF2837BD4674
:1008100080BD00BF19FCFFFF67666666F03100000F
:10082000F02F000080B500AF00227821012001F0F8
:10083000B9FA00227821022001F0B4FA00227821CE
:10084000032001F0AFFA00227821042001F0AAFA77
:1008500000227821052001F0A5FA00227821062047
:1008600001F0A0FA00227821072001F09BFA00BFD6
:1008700080BD000080B584B000AF03463960FB71D5
:100880000023FB600023BB60FB790E2B6BD801A219
:1008900052F823F0D1080000DB080000E508000052
:1008A000EF080000F9080000030900000D0900002E
:1008B00017090000210900002B090000350900007C
:1008C0003F09000049090000530900005D090000CC
:1008D0000123FB600C23BB6046E00023FB60202368
:1008E000BB6041E00323FB602723BB603CE00223A5
:1008F000FB600C23BB6037E00023FB601C23BB6064
:1009000032E00323FB600C23BB602DE00423FB607B
:100910000C23BB6028E00023FB601E23BB6023E0A8
:100920000523FB602723BB601EE00023FB6022231E
:10093000BB6019E00023FB602323BB6014E00723A6
:10094000FB600C23BB600FE00523FB600C23BB6046
:100950000AE00623FB600C23BB6005E00723FB6075
:100960001D23BB6000E000BF3B68002B05D00122C7
:10097000B968F86801F050F804E00022B968F86836
:1009800001F04AF800BF1037BD4680BD80B483B087
:1009900000AF78603960FEE780B487B000AFF860E0
:1009A000B9607A60FB6803F10473DA00BB68134432
:1009B0009B007B617B697A681A6000BF1C37BD466B
:1009C00080BC704780B485B000AF786039607B68C8
:1009D00003F10473DA003B6813449B00FB60FB687F
:1009E0001B6818461437BD4680BC704780B584B07C
:1009F00000AF78607B68002B03D07B68B3F5004FB5
:100A000004D940F6C2210748FFF7C0FF7B68B3FA5C
:100A100083F3DBB2C3F11F03FB60FB68184610379A
:100A2000BD4680BD9432000080B400AF034BDB6C48
:100A30001B0CDBB21846BD4680BC7047B081E00F8E
:100A400080B582B000AFFFF7EFFF03464A2B04D01A
:100A5000792B02D0482B23D024E0174B1B699BB283
:100A60001B029BB203F47C53FB80134B9B691B0955
:100A70001B0103F0F0039AB2FB881343FB800E4B7B
:100A8000DB691B0903F00F039AB2FB881343FB8059
:100A9000FB88B3F5017F01D3084B09E0084B07E061
:100AA000074B05E04FF44A610648FFF76FFF00234C
:100AB00018460837BD4680BDD0FF0FE000366E01F6
:100AC0000048E801FC32000080B584B000AF7860D7
:100AD0000123FB60FFF7B4FF02467B68934204D812
:100AE0000023FB600023BB600BE0FFF7A9FF034678
:100AF0005B007A689A4202D80123BB6001E00223BE
:100B0000BB60FA681E210848FFF746FF064B5B688A
:100B100023F48072BB681B02034913434B6000BF80
:100B20001037BD4680BD00BF00800C4080B485B04A
:100B300000AF78603960204B5B6803F00703FB600F
:100B4000FB68012B01D9042B02D10023FB7202E0C8
:100B50000123FB7200BF7B68184A934207D9FB7AD6
:100B6000002B01D0052300E00423FB6016E07B6826
:100B7000124A93420BD87B68114A934207D9FB7AF9
:100B8000002B01D0032300E00123FB6006E0FB7A89
:100B9000002B01D0022300E00023FB60064B5B68C2
:100BA00023F007020449FB6813434B6000BF14376E
:100BB000BD4680BC704700BF00000C400048E80103
:100BC0000024F40080B582B000AF0E4BDB6B002B2D
:100BD00014BF01230023FB710A4B41F67132DA6323
:100BE000FFF714FB034600211846FFF79FFFFB7930
:100BF000002B02D0034B0022DA6300BF0837BD464A
:100C000080BD00BF00000C4080B584B000AF7860AC
:100C100039600C4BDB6B002B14BF01230023FB73EB
:100C2000084B41F67132DA6339687868FFF77EFF66
:100C3000FB7B002B02D0034B0022DA6300BF10378E
:100C4000BD4680BD00000C4080B483B000AF78602A
:100C5000094B5B6D03F00103002B07D100BF064B6E
:100C60001A6D7B681340002BF9D100E000BF0C37F0
:100C7000BD4680BC704700BF00800C4080B400AF10
:100C800000BFBD4680BC704780B400AF00BFBD460A
:100C900080BC704790B585B000AF786039607B68E4
:100CA0001B0903F00F03FB60FB68013B0C2B00F2F8
:100CB000598101A252F823F0ED0C0000650F0000ED
:100CC000650F00002B0D0000650F0000650F000090
:100CD0007D0D0000D90D0000E50E0000650F00003D
:100CE000650F0000650F00005D0D00003B68002BE4
:100CF00002D03B68082B04D941F205319E48FFF72A
:100D000045FEFFF75FFF9D4B1B6823F4E0323B6815
:100D1000013B9B03994913430B60FFF75DFAB860F1
:100D20000021B868FFF770FF22E13B68002B03D079
:100D30003B68B3F5007F04D941F218318E48FFF7C4
:100D400025FE3868FFF752FE38608C4B9B6823F015
:100D50000F028A493B6813438B6009E13868FFF74B
:100D600045FE0346013B3B60844B5B6823F4807285
:100D70003B681B02814913434B60F9E03B68002B41
:100D800003D03B68B3F5007F04D941F22E317A4895
:100D9000FFF7FCFDFFF716FFFFF71EFA02463B6860
:100DA000B2FBF3F31846FFF78FFE3868FFF71EFE1D
:100DB0003860724B5B6823F00F0270493B68134345
:100DC0004B60FFF709FAB8600021B868FFF71CFF15
:100DD000B868FFF779FECBE07B68694A934227D079
:100DE000674A934203D8674A934207D073E0664A42
:100DF000934237D0654A934255D06CE03B68B3F5D7
:100E0000004F04D941F24C315B48FFF7BFFD04208D
:100E1000FFF71AFF3868FFF7E9FD3860574B9B6E04
:100E200023F0F0023B681B01544913438B6658E0E2
:100E30003B68B3F5004F04D941F25A314E48FFF7F1
:100E4000A5FD0420FFF700FF3868FFF7CFFD3860ED
:100E50004A4B9B6E23F470623B681B024749134365
:100E60008B663EE03B680F2B02D93B68802B04D990
:100E700041F269314048FFF789FD0420FFF7E4FEA5
:100E80003868FFF7B3FD38603C4B9B6E23F4405449
:100E90001020FFF7ABFD02463B689B1A1B03374A45
:100EA000234393661DE03B68082B04D941F2793156
:100EB0003148FFF76BFD0420FFF7C6FE3868FFF7E7
:100EC00095FD38602D4B9B6E23F003022B493B6848
:100ED00013438B6605E041F287312748FFF756FD43
:100EE00000BF45E07B682A4A934203D0294A9342D7
:100EF00018D030E03B68082B04D941F290311E48ED
:100F0000FFF744FD4020FFF79FFE3868FFF76EFDB6
:100F100038601A4B1B6F23F0030218493B681343D8
:100F20000B671EE03B68082B04D941F29F31124841
:100F3000FFF72CFD4020FFF787FE3868FFF756FDCE
:100F400038600E4B1B6F23F030023B681B010B49CE
:100F500013430B6705E041F2AD310748FFF716FD7B
:100F600000BF05E041F2B3310348FFF70FFD00BFBA
:100F700000BF1437BD4690BDFC32000000800C401D
:100F8000802616008016120080002A0080062E009F
:100F900090071A0090171C0080B586B000AF7860EB
:100FA0000B46FB7000233B617B681B0A03F00F03B9
:100FB000013B092B32D801A252F823F0F70F0000B1
:100FC000FD0F0000E50F00001D1000001D100000C7
:100FD000031000000D1000001D1000001D10000087
:100FE000171000001A4B7B61FFF7F6F8034618460E
:100FF000FFF76AFD18E0174B7B6115E0164B7B612C
:1010000012E0164B7B6101233B610DE0144B7B61C9
:1010100010233B6108E0134B7B6105E041F239414D
:101020001148FFF7B3FC10E07B681B0B03F01F03B4
:10103000FB603B69002B02D03869FFF705FEFB78A7
:101040001A46F9687869FFF7A7FC1837BD4680BDD6
:1010500040800C4008800C4044800C4058800C407C
:1010600060800C4078800C40FC32000080B588B075
:1010700000AF78600B46FB700323FB610323FB7614
:1010800000233B617B6803F00F03FB60FB68013BBF
:10109000062B00F2438101A252F823F0B9100000A0
:1010A000A7110000A71100001D1300001D13000070
:1010B00075120000AB120000FB78023B082B52D8DF
:1010C00001A252F823F000BFED100000F71000005D
:1010D00001110000431100006711000067110000BA
:1010E00067110000671100005B1100000423FB6121
:1010F0000023FB763DE00323FB610123FB7638E010
:101100000223FB610223FB76FFF79AFC03460133BF
:101110001846FFF7D9FCFFF703F90246844B9A42C1
:1011200006D9844B1B68834A43F06003136020E0B8
:10113000804B1B6823F060037E4A43F0200313605A
:1011400017E00123FB610323FB76FFF779FC0346DD
:1011500001331846FFF7B8FC0BE041F64A21764808
:10116000FFF714FCE0E041F64F217348FFF70EFC57
:10117000DAE0FB7E01220121184600F009F9FFF7B1
:1011800021FDFFF77BFD6B4AFB695362FFF724F8F3
:10119000B860B868FFF798FC0021B868FFF734FD25
:1011A000FFF772FDC0E0FB78013B092B3CD801A2A0
:1011B00052F823F0DD110000E3110000F3110000EC
:1011C0002912000029120000031200002912000059
:1011D00029120000291200001F12000000237B6169
:1011E00028E001220121002000F0D2F802237B61D7
:1011F00020E001220121012000F0CAF801237B61D7
:1012000018E0FEF7E9FFB860B868FFF75DFC01225F
:1012100004214A48FFF7C0FB03237B610AE0002357
:101220007B6101233B6105E041F6F8214248FFF76D
:10123000ADFB79E0FB68022B0DD13E4B9B6A23F49A
:10124000803323F003037A691A433B691B0439494D
:1012500013438B6268E0374B9B6A23F4801323F0BF
:101260000C037A6992001A433B691B053149134309
:101270008B6259E0FB78072B02D0092B07D00DE0D9
:101280002C4B1B682B4A23F0805313600CE0294B36
:101290001B68284A43F08053136005E041F6533140
:1012A0002548FFF773FB3FE03EE0FB78032B13D0AC
:1012B000092B21D0022B2AD101220121002000F08C
:1012C00067F81C4B40225A6200BF1A4BDB6A03F4DA
:1012D0008033002BF9D020E001220121012000F011
:1012E00057F8144B60225A6200BF124BDB6A03F4BA
:1012F0000033002BF9D010E00E4B20225A6200BFC1
:101300000C4BDB6A03F40043002BF9D005E041F6F7
:1013100092310948FFF73AFB06E005E041F68841C3
:101320000548FFF733FB00BF2037BD4680BD00BF37
:101330000048E80100800C40FC32000040800C4076
:1013400080B582B000AF78607B68802B04D941F60D
:10135000D8710D48FFF71AFB0C4B9B6D03F0080387
:10136000002B0CD17B6803F007037B60074BDB6F1E
:1013700023F0070205497B681343CB6700E000BFF9
:101380000837BD4680BD00BFFC32000000800C4025
:1013900080B586B000AF0346FB710B46BB711346A8
:1013A0007B71FB79042B32D801A252F823F000BFE5
:1013B000FD130000EF130000D3130000C51300005D
:1013C000E113000001233B610223FB6001237B61E9
:1013D00023E004233B610823FB6003237B611CE0C3
:1013E00010233B612023FB6005237B6115E0402334
:1013F0003B618023FB6007237B610EE04FF4807329
:101400003B614FF40073FB6009237B6105E042F20E
:101410008E010E48FFF7BAFA14E0BB79002B0ED00C
:101420000B4A3B6913627B79002B0BD000BF7969B3
:101430000848FFF7C7FA0346002BF8D002E0044A39
:10144000FB6813621837BD4680BD00BFFC32000048
:1014500000800C402C800C4080B483B000AFEFF3D0
:1014600010833B603B687B6072B67B6818460C3724
:10147000BD4680BC704780B483B000AF78607B68A5
:10148000002B00D162B600BF0C37BD4680BC704750
:1014900080B487B000AFF860B9607A60FB6803F190
:1014A0000473DA00BB6813449B007B617B697A6834
:1014B0001A6000BF1C37BD4680BC704780B485B041
:1014C00000AFF860B9607A60FB681A68BB68DB43FC
:1014D0001A407B681A43FB681A6000BF1437BD4688
:1014E00080BC704780B483B000AF7860044A7B68EA
:1014F000C2F81C3100BF0C37BD4680BC704700BF2E
:101500000060004080B582B000AF03463960FB71D7
:10151000FB79002B1FD0FB79012B19D0FB79022B13
:1015200013D0FB79032B0DD0FB79042B07D0FB796B
:10153000052B02D141F6FF730FE000230DE04FF6BB
:10154000FF730AE04FF6FF7307E04FF6FF7304E006
:101550004FF6FF7301E04FF6FF733A68134103F053
:101560000103002B04D14FF477710A48FFF70EFAFC
:1015700001223B6802FA03F30749FA791846134639
:10158000DB0013449B000B441433186000BF083782
:10159000BD4680BD103300000060004080B582B0C1
:1015A00000AF03463960FB71FB79002B1FD0FB793C
:1015B000012B19D0FB79022B13D0FB79032B0DD013
:1015C000FB79042B07D0FB79052B02D141F6FF7381
:1015D0000FE000230DE04FF6FF730AE04FF6FF73B4
:1015E00007E04FF6FF7304E04FF6FF7301E04FF69C
:1015F000FF733A68134103F00103002B04D140F25A
:101600000B410A48FFF7C2F901223B6802FA03F3D3
:101610000749FA7918461346DB0013449B000B4434
:101620001033186000BF0837BD4680BD103300007E
:101630000060004080B586B000AFB9607A601A469D
:101640000346FB731346BB7300237B61FB7B002BBC
:101650001FD0FB7B012B19D0FB7B022B13D0FB7B14
:10166000032B0DD0FB7B042B07D0FB7B052B02D17A
:1016700041F6FF730FE000230DE04FF6FF730AE021
:101680004FF6FF7307E04FF6FF7304E04FF6FF736A
:1016900001E04FF6FF73BA68134103F00103002B1A
:1016A00003D1C4212248FFF771F97B68072B0ED8BC
:1016B0007B689B00072202FA03F1FA7B7B689B00A0
:1016C00002FA03F31A461B48FFF7F8FE10E07B68A6
:1016D000083B7B617B699B00072202FA03F1FA7BDE
:1016E0007B699B0002FA03F31A461348FFF7E6FEF4
:1016F000BB7B1A4679681148FFF7CAFE97F820307D
:101700001A4679680E48FFF7C3FE01227B6802FA89
:1017100003F31846FFF7E6FE97F824301A46796877
:101720000848FFF7B5FE00BF1837BD4680BD00BFB3
:10173000783300000061004004610040086100400F
:101740000C6100401061004080B584B000AFB9600A
:101750007B600346FB731346BB73FB7B002B1FD0E0
:10176000FB7B012B19D0FB7B022B13D0FB7B032BC4
:101770000DD0FB7B042B07D0FB7B052B02D141F660
:10178000FF730FE000230DE04FF6FF730AE04FF602
:10179000FF7307E04FF6FF7304E04FF6FF7301E0BD
:1017A0004FF6FF73BA68134103F00103002B04D115
:1017B00040F21B113948FFF7E9F8BB7B002B0DD035
:1017C0007B68002B05D0FB7BB9681846FFF7E6FE67
:1017D00004E0FB7BB9681846FFF794FEBB68072B53
:1017E00020D82F49FA7B1346DB0013449B000B449F
:1017F00004331A68BB689B000F2101FA03F3DB4333
:101800001340B97BBA68920001FA02F211462448EB
:10181000FA7B19431346DB0013449B000344043353
:10182000196025E01E49FA7B1346DB0013449B0038
:101830000B4408331A68BB6803F18043083B9B00E4
:101840000F2101FA03F3DB4302EA0301BA7BBB6811
:1018500003F18043083B9B0002FA03F31048FA7B34
:1018600019431346DB0013449B00034408331960FB
:10187000BB7B002B0DD17B68002B05D0FB7BB968AF
:101880001846FFF78BFE04E0FB7BB9681846FFF7AC
:1018900039FE00BF1037BD4680BD00BF7833000061
:1018A0000060004080B483B000AF0346FB71FB7959
:1018B000002B06D0084B1B68074A43F00103136056
:1018C00005E0054B1B68044A23F00103136000BFC9
:1018D0000C37BD4680BC704700A0084080B487B07C
:1018E00000AFF860B9607A60FB6803F10473DA0056
:1018F000BB6813449B007B617B697A681A6000BFF8
:101900001C37BD4680BC704780B584B000AF78609E
:101910001E4B5B68FB607B68002B03D145211C4894
:10192000FFF734F80020FFF7BDFFFB6823F48303C3
:1019300023F01F03FB607B685B68FA681343FB605E
:101940007B681B7A1A46FB681343FB607B685B7AF3
:101950001A46FB681343FB607B68DB68FA68134335
:10196000FB607B681B8A1A46FB681343FB60074ACF
:10197000FB6853607B681B78002B02D00120FFF7C7
:1019800091FF00BF1037BD4680BD00BF00A00840DA
:101990008C33000080B485B000AF78600D4B5B687D
:1019A000FB60FB6823F48033FB607B68002B08D06E
:1019B000B3F5803F00D005E0FB6843F48033FB6063
:1019C00000E000BF034AFB68536000BF1437BD4608
:1019D00080BC704700A0084080B483B000AF0346CD
:1019E0000A46FB8013467B717B79002B06D0094B9E
:1019F0009A68FB88074913438B6006E0054B9A6899
:101A0000FB88DB43034913408B6000BF0C37BD46A6
:101A100080BC704700A0084080B584B000AFF8607B
:101A2000B9601346FB71FB68072B04DD40F2171108
:101A30006548FEF7ABFFBB68272B04DD4FF48F71C1
:101A40006148FEF7A3FFFB68072B00F2B38001A2F9
:101A500052F823F0751A00009D1A0000C51A000004
:101A6000ED1A0000151B00003D1B0000651B000067
:101A70008D1B0000BB681F2B06DCBB68FA7919467A
:101A80005248FFF72BFF9BE0BB68203BBB60BB6865
:101A9000FA7919464E48FFF721FF91E0BB681F2BEA
:101AA00006DCBB68FA7919464A48FFF717FF87E05A
:101AB000BB68203BBB60BB68FA7919464648FFF714
:101AC0000DFF7DE0BB681F2B06DCBB68FA79194669
:101AD0004248FFF703FF73E0BB68203BBB60BB6875
:101AE000FA7919463E48FFF7F9FE69E0BB681F2BFB
:101AF00006DCBB68FA7919463A48FFF7EFFE5FE06B
:101B0000BB68203BBB60BB68FA7919463648FFF7D3
:101B1000E5FE55E0BB681F2B06DCBB68FA79194669
:101B20003248FFF7DBFE4BE0BB68203BBB60BB6885
:101B3000FA7919462E48FFF7D1FE41E0BB681F2B0A
:101B400006DCBB68FA7919462A48FFF7C7FE37E07A
:101B5000BB68203BBB60BB68FA7919462648FFF793
:101B6000BDFE2DE0BB681F2B06DCBB68FA79194669
:101B70002248FFF7B3FE23E0BB68203BBB60BB6895
:101B8000FA7919461E48FFF7A9FE19E0BB681F2B1A
:101B900006DCBB68FA7919461A48FFF79FFE0FE08A
:101BA000BB68203BBB60BB68FA7919461648FFF753
:101BB00095FE05E04FF4C4710348FEF7E7FE00BF51
:101BC00000BF1037BD4680BD8C33000040A00840E8
:101BD00050A0084044A0084054A0084048A0084035
:101BE00058A008404CA008405CA00840CCA0084089
:101BF000B4A00840D0A00840B8A00840D4A0084035
:101C0000BCA00840D8A00840C0A0084080B586B05D
:101C100000AFF860B9607A60FB68072B04DD40F222
:101C2000A1115E48FEF7B2FEFB68072B00F2AC8004
:101C300001A252F823F000BF591C00007D1C0000D7
:101C4000A11C0000C51C0000E91C0000111D0000C3
:101C5000391D0000611D0000514B1B6C7B61BB688E
:101C6000DB437A6913407B61BA687B6813407A6909
:101C700013437B614A4A7B6913648BE0484B5B6C7E
:101C80007B61BB68DB437A6913407B61BA687B6820
:101C900013407A6913437B61414A7B69536479E05D
:101CA0003F4B9B6C7B61BB68DB437A6913407B6174
:101CB000BA687B6813407A6913437B61384A7B6951
:101CC000936467E0364BDB6C7B61BB68DB437A690E
:101CD00013407B61BA687B6813407A6913437B6168
:101CE0002F4A7B69D36455E02D4BD3F8CC307B6110
:101CF000BB68DB437A6913407B61BA687B68134039
:101D00007A6913437B61264A7B69C2F8CC3041E093
:101D1000234BD3F8D0307B61BB68DB437A69134037
:101D20007B61BA687B6813407A6913437B611C4A04
:101D30007B69C2F8D0302DE0194BD3F8D4307B61E9
:101D4000BB68DB437A6913407B61BA687B681340E8
:101D50007A6913437B61124A7B69C2F8D43019E077
:101D60000F4BD3F8D8307B61BB68DB437A691340F3
:101D70007B61BA687B6813407A6913437B61084AC8
:101D80007B69C2F8D83005E040F2E1110348FEF764
:101D9000FDFD00BF00BF1837BD4680BD8C3300007D
:101DA00000A0084080B586B000AFF860B9607A60E6
:101DB000FB68072B04DD40F2F9115C48FEF7E6FDF5
:101DC000FB68072B00F2AC8001A252F823F000BFA1
:101DD000F11D0000151E0000391E00005D1E0000F0
:101DE000811E0000A91E0000D11E0000F91E000087
:101DF0004F4B1B6D7B61BB68DB437A6913407B6192
:101E0000BA687B6813407A6913437B61484A7B69EF
:101E1000136586E0464B5B6D7B61BB68DB437A698B
:101E200013407B61BA687B6813407A6913437B6116
:101E30003F4A7B69536574E03D4B9B6D7B61BB689A
:101E4000DB437A6913407B61BA687B6813407A6927
:101E500013437B61364A7B69936562E0344BDB6DEB
:101E60007B61BB68DB437A6913407B61BA687B683E
:101E700013407A6913437B612D4A7B69D36550E037
:101E80002B4BD3F8B4307B61BB68DB437A691340DA
:101E90007B61BA687B6813407A6913437B61244A8B
:101EA0007B69C2F8B4303CE0214BD3F8B8307B6199
:101EB000BB68DB437A6913407B61BA687B68134077
:101EC0007A6913437B611A4A7B69C2F8B83028E00B
:101ED000174BD3F8BC307B61BB68DB437A69134096
:101EE0007B61BA687B6813407A6913437B61104A4F
:101EF0007B69C2F8BC3014E00D4BD3F8C0307B6175
:101F0000BB68DB437A6913407B61BA687B68134026
:101F10007A6913437B61064A7B69C2F8C03000E0EE
:101F200000BF00BF1837BD4680BD00BF8C33000026
:101F300000A0084080B483B000AF7860064B5B68B7
:101F400023F4E01204497B6813434B6000BF0C3755
:101F5000BD4680BC704700BF00A0084080B584B07B
:101F600000AF78607B68002B03D146211B48FEF749
:101F70000DFD1B4B5B69DBB29B00DBB203F03C0346
:101F8000FB73174B1B699B09DBB203F00303DAB247
:101F9000FB7B1343FB737B68FA7B9A70104B1B69C6
:101FA000DBB203F03F03DAB27B685A700C4B9B69DB
:101FB0001B09DBB21B01FB73094BDB691B09DBB29D
:101FC00003F00F03DAB2FB7B1343FB737B68FA7BEE
:101FD0001A7000BF1037BD4680BD00BFA03300009F
:101FE000D0FF0FE080B483B000AF78607B680D4A0B
:101FF00093420BD07B680C4A934207D07B680B4A14
:10200000934203D07B680A4A934201D1012300E046
:10201000002303F00103DBB218460C37BD4680BC39
:10202000704700BF0000014000040140000801406B
:10203000000C014080B584B000AF786039607868EA
:10204000FFF7D0FF0346002B03D19F213748FEF74F
:102050009DFC0023FB603B681B7883F00103DBB22F
:10206000002B02D07B6802225A607B6800225A62F1
:102070003B689B781A063B68DB781B041A433B6875
:102080009B799B021A433B68DB791B0213433A6836
:10209000127A13433A685278002A01D0402200E0B5
:1020A000002213433A68527A002A01D0802200E0CD
:1020B000002213433A68927A002A01D0202200E0DD
:1020C000002213433A68D27A002A01D0102200E09D
:1020D000002213433A68127B002A01D0082200E054
:1020E00000221343FB603B681B79002B02D04FF4A6
:1020F000005200E000223B685B79002B02D04FF0D9
:10210000805300E000231343FA681343FB607B68AD
:10211000FA681A603B681B78002B02D07B680122AA
:102120005A6000BF1037BD4680BD00BF203400009C
:1021300080B483B000AF78607B685B6A18460C3768
:10214000BD4680BC7047000080B483B000AF002360
:102150007B6002E07B6801337B607B68034A9342CB
:10216000F8DD00BF0C37BD4680BC7047EF49020068
:1021700080B584B000AFF860B9607A60BB6803F1E5
:102180000053013BDB00FA681A44BB68DB00F968C6
:102190000B4412681A60BB6803F10053013BDB007B
:1021A000FA681A44BB68DB00F9680B4412791A71AB
:1021B0007A68B968F86800F0FDF800BF1037BD46CE
:1021C00080BD80B586B000AFF860B9607A603B60D2
:1021D0000023FB757B681A683B681B689A420ED126
:1021E0007B681A793B681B799A4208D1BB681B68E7
:1021F0003A681946F868FFF7BBFF0123FB75BB6817
:102200001B68013B3B611CE03B6903F10053013B50
:10221000DB00FA681A443B69DB00F9680B4412687A
:102220001A603B6903F10053013BDB00FA681A4472
:102230003B69DB00F9680B4412791A713B69013B79
:102240003B613B69002BDFDC7B681A68FB681A6026
:102250007B681A79FB681A71FB7D002B05D0BB687F
:102260001B685A1CBB681A6000BF00BF1837BD4608
:1022700080BD000080B483B000AF78600B46FB7077
:10228000FB78613B062B4CD801A252F823F000BF2B
:10229000AD2200002323000023230000E9220000D8
:1022A000D5220000C1220000FD2200007B685A1EDA
:1022B0001E4911F8123043F0010301F8123030E0EA
:1022C0007B685A1E194911F8123043F0200301F8B7
:1022D000123026E07B685A1E144911F8123043F080
:1022E000100301F812301CE07B685A1E0F4911F8E8
:1022F000123043F0080301F8123012E07B685A1ED6
:102300000A4911F8123043F0400301F812307B689B
:10231000013B064A5B0013445A7842F004025A70AB
:1023200000BF00BF0C37BD4680BC7047980100203D
:1023300080B586B000AFF860B9607A60B868FEF723
:10234000DDF900237B6107E0194A7B69002122F84F
:1023500013107B6901337B617B69062BF4DD7B689D
:102360001A687B681B7919461046FFF783FF1048EF
:1023700000F094FD00233B610FE03B69DB00FA684D
:10238000134418683B69DB00FA6813441B7919464B
:10239000FFF770FF3B6901333B613A69BB689A42C2
:1023A000EBDB034800F07AFD00BF1837BD4680BD67
:1023B0009801002080B58CB000AFF860B9607A60F9
:1023C0007B681B683B627B681B79FB77012387F87E
:1023D0002F30012387F82E307DE0002387F82E3040
:1023E000002387F82F304A48FFF7A2FE0146494BE9
:1023F000A3FB0123CA1A520813449A081346DB00B0
:102400009B1ACA1A531CBB614148FFF791FE014653
:10241000414BA3FB01239A0813469B001344CA1A9D
:1024200013463B616123FB753B69042B1BD801A25A
:1024300052F823F0492400004F24000055240000E6
:102440005B240000612400006123FB750BE0662320
:10245000FB7508E06723FB7505E06523FB7502E06B
:102460006423FB7500BF0023BB6202E0BB6A01333B
:10247000BB62BA6A3B6A9A42F8DBBB693A6A9A4223
:1024800007D1FB7DDBB2FA7F9A4202D1012387F8A4
:102490002F3000237B621AE07B6ADB00FA6813446A
:1024A0001A68BB699A420CD17B6ADB00FA68134454
:1024B0001A79FB7DDBB29A4203D1012387F82E30D3
:1024C00009E0002387F82E307B6A01337B627A6A49
:1024D000BB689A42E0DB97F82E30002B7FF47DAF8B
:1024E00097F82F30002B7FF478AFBB69FA7DD2B21A
:1024F00011461846FFF7BEFEBA697B681A60FB7D7D
:10250000DAB27B681A7100BF3037BD4680BD00BFAC
:102510000000014025499224CDCCCCCC80B485B0BC
:1025200000AF786039600023FB600123BB6016E0D8
:102530007B681A68BB68DB0079680B441B689A42A9
:102540000AD17B681A79BB68DB0079680B441B7978
:102550009A4201D10123FB60BB680133BB60BA68BA
:102560003B689A42E4DBFB6818461437BD4680BCE2
:102570007047000080B487B000AFF860B9607A603F
:102580003B60FB6801221A60FB6867221A71022314
:102590007B610EE07B69DB00FA68134400221A605D
:1025A0007B69DB00FA68134430221A717B690133BE
:1025B0007B617B69242BEDDD7B6802221A607B68DE
:1025C00067221A71094B00221A70094B00221A70F7
:1025D000BB6801221A603B6800221A703B6A002225
:1025E0001A7000BF1C37BD4680BC704794010020A4
:1025F0009501002080B500AFFFF7A6FD01210B205B
:10260000FEF738F901210C20FEF734F901210D20E5
:10261000FEF730F901210E20FEF72CF901210F20E1
:10262000FEF728F9FFF790FD00210B20FEF722F9B5
:1026300000210C20FEF71EF900210D20FEF71AF9EB
:1026400000210E20FEF716F900210F20FEF712F9E7
:1026500000BF80BD80B485B000AF78600B46FB70D2
:102660001346BB707B681B68FB607B681B79FB7241
:10267000FB78002B29D1BB78002B26D17B681B79F6
:10268000612B08D1FB68072B02D10123FB6002E01C
:10269000FB680133FB607B681B79672B08D1FB6803
:1026A000072B02D10123FB6002E0FB680133FB60D2
:1026B0007B681B79642B08D1FB68072B02D10123AF
:1026C000FB6002E0FB680133FB60FB78002B14D158
:1026D000BB78032B11D17B681B79612B01D165235A
:1026E000FB727B681B79672B01D16623FB727B68C9
:1026F0001B79642B01D16523FB72FB78002B14D16D
:10270000BB78012B11D17B681B79612B01D166232A
:10271000FB727B681B79672B01D16523FB727B6899
:102720001B79642B01D16623FB72FB78022B29D124
:10273000BB78022B26D17B681B79612B08D1FB6803
:10274000012B02D10723FB6002E0FB68013BFB6029
:102750007B681B79672B08D1FB68012B02D107230B
:10276000FB6002E0FB68013BFB607B681B79642B2C
:1027700008D1FB68012B02D10723FB6002E0FB6854
:10278000013BFB60FB78022B2FD1BB78032B2CD1B4
:102790007B681B79612B0AD1FB68072B02D10123CF
:1027A000FB6002E0FB680133FB606523FB727B6822
:1027B0001B79672B0AD1FB68072B02D10123FB6031
:1027C00002E0FB680133FB606623FB727B681B79C8
:1027D000642B0AD1FB68072B02D10123FB6002E0C6
:1027E000FB680133FB606523FB72FB78022B2FD162
:1027F000BB78012B2CD17B681B79612B0AD1FB683C
:10280000072B02D10123FB6002E0FB680133FB6070
:102810006623FB727B681B79672B0AD1FB68072B49
:1028200002D10123FB6002E0FB680133FB606523FA
:10283000FB727B681B79642B0AD1FB68072B02D1E2
:102840000123FB6002E0FB680133FB606623FB723F
:10285000FB78032B0ED1BB78032B0BD17B681B7944
:10286000652B01D16623FB727B681B79662B01D136
:102870006523FB72FB78032B0ED1BB78002B0BD1A9
:102880007B681B79652B01D16123FB727B681B7907
:10289000662B01D16723FB72FB78032B20D1BB7819
:1028A000022B1DD17B681B79652B0AD1FB68012B9C
:1028B00002D10723FB6002E0FB68013BFB60612360
:1028C000FB727B681B79662B0AD1FB68012B02D156
:1028D0000723FB6002E0FB68013BFB606723FB72A0
:1028E000FB78012B0ED1BB78012B0BD17B681B79B8
:1028F000652B01D16623FB727B681B79662B01D1A6
:102900006523FB72FB78012B0ED1BB78002B0BD11A
:102910007B681B79652B01D16723FB727B681B7970
:10292000662B01D16423FB72FB78012B20D1BB788D
:10293000022B1DD17B681B79652B0AD1FB68012B0B
:1029400002D10723FB6002E0FB68013BFB606723C9
:10295000FB727B681B79662B0AD1FB68012B02D1C5
:102960000723FB6002E0FB68013BFB606423FB7212
:102970007B68FA681A607B68FA7A1A7100BF1437AC
:10298000BD4680BC7047000080B483B000AF0346F2
:10299000FB7197F90730002B0BDBFB7903F01F026B
:1029A000064997F907305B09012000FA02F241F865
:1029B000232000BF0C37BD4680BC704700E100E01B
:1029C00080B400AF034BDB6C1B0EDBB21846BD4678
:1029D00080BC7047B081E00F80B584B002AF396031
:1029E00011461A460346FB710B46BB7113467B71B9
:1029F000BA79F8793B7C01937B79009313463A6866
:102A00003968FEF717FE00BF0837BD4680BD0000DD
:102A100080B582B000AF0E4B01221A64FFF7D0FFE1
:102A20000346FB713B1D1846FFF798FAFB790F2B05
:102A30000AD93B79022B07D9064B1B6823F05003B8
:102A4000044A43F01003136000BF0837BD4680BD41
:102A500000000C40C0800C4080B483B000AF7860B0
:102A60004FF6FF7318460C37BD4680BC7047000018
:102A700080B582B000AF786039607868FFF7ECFF0E
:102A800002463B68934204D940F221310448FDF7E5
:102A90007DFF7B683A685A6200BF0837BD4680BD3B
:102AA0003434000080B483B000AF786039607B6854
:102AB0003A689A6100BF0C37BD4680BC704780B44D
:102AC00083B000AF786039607B68DA683B681A438E
:102AD0007B68DA6000BF0C37BD4680BC70470000E1
:102AE00080B582B000AF786039607868FFF7B4FFD6
:102AF00002463B68934204D940F269410448FDF71D
:102B000045FF7B683A68DA6100BF0837BD4680BD83
:102B10003434000080B500AF044B01221A7001214B
:102B20000348FFF7BFFF00BF80BD00BFA601002024
:102B30000000014080B483B000AF0346FB71FB7915
:102B4000092B03D1074B01221A7005E0FB790A2BF0
:102B500002D1054B01221A7000BF0C37BD4680BC64
:102B6000704700BF950100209401002090B5D9B0B6
:102B700002AFFFF74DFF0020FDF764FD0121AB48D8
:102B8000FEF70AFAFDF755FC002301220921012076
:102B9000FEF7DAFD002301220A210120FEF7D4FD11
:102BA000A3490920FDF756FCA1490A20FDF752FC74
:102BB000012300930123002209210120FFF70CFFCC
:102BC00001230093012300220A210120FFF704FFC3
:102BD00001219848FEF75EF801219748FEF7DCF9DD
:102BE00007F5A27300221A605A609A601A730123D3
:102BF00087F84431082387F8463107F5A273194650
:102C00008E48FFF717FA00218C48FFF731FF4DF28D
:102C10009F518A48FFF764FF01218848FFF742FF70
:102C200001218648FFF74BFF0220FFF7ADFE07F1B9
:102C3000080301221A60FB1D00221A70BB1D00222E
:102C40001A7007F10C0301221A6007F10C036122CC
:102C50001A71FC1D07F1140207F1080107F11C00AD
:102C6000BB1D00932346FFF785FC07F10803196895
:102C700007F10C0207F11C031846FFF79BFB07F155
:102C80000803196807F10C0207F11C031846FFF747
:102C90004FFBFFF7AFFC6A4B1B78DBB2002B2FD04A
:102CA000674B00221A7007F10C0307F1140207F1B9
:102CB000080107F11C00FFF784FA07F108031968FF
:102CC00007F10C0207F11C031846FFF731FB5D4BBF
:102CD0001B78DBB283F00103DBB2002B10D05A4B20
:102CE0001B78DBB283F00103DBB2002B08D0FB1DA5
:102CF0001978BB1D1A7807F114031846FFF7AAFCD0
:102D000007F108031A6807F11C0311461846FFF77C
:102D100005FCC7F85401D7F85431002B41D00023EB
:102D2000C7F8543101E0FFF765FC464B1B78DBB276
:102D300083F00103DBB2002B07D0434B1B78DBB2DF
:102D400083F00103DBB2002BEDD1FC1D07F114026F
:102D500007F1080107F11C00BB1D00932346FFF794
:102D600009FC07F10803196807F10C0207F11C03BD
:102D70001846FFF71FFB07F10803196807F10C025B
:102D800007F11C031846FFF7D3FA2D4B00221A70E7
:102D900000BF2B4B1B78DBB283F00103DBB2002BAF
:102DA000F7D1284B1B78DBB2002B05D1264B1B78C3
:102DB000DBB2002B3FF46FAF224B1B78DBB2002B52
:102DC0000DD0BB1D1B78032B03D1BB1D00221A7035
:102DD00005E0BB1D1B780133DAB2BB1D1A701A4B1C
:102DE0001B78DBB2002B0DD0BB1D1B78002B03D151
:102DF000BB1D03221A7005E0BB1D1B78013BDAB234
:102E0000BB1D1A70FB1D1978BB1D1A7807F114033E
:102E10001846FFF71FFC0B4B00221A700A4B0022CA
:102E20001A70BB1D1A78FB1D1A7034E700D204001B
:102E3000352B0000408104000052040000000140D6
:102E4000A6010020940100209501002080B483B0E9
:102E500000AF0346FB71FB79002B03D0054B012229
:102E60001A6602E0034B00221A6600BF0C37BD460B
:102E700080BC704700A0084080B483B000AF786089
:102E800000BF054B5A6E7B681340002BF9D100BF81
:102E90000C37BD4680BC704700A0084080B586B0A6
:102EA00000AF78604FF0FF30FFF7E6FF0120FFF73B
:102EB000CDFF0023BB753CE00023FB7533E0BA7DFA
:102EC000F97D21481346DB009B1A9B0003440B4409
:102ED0000E331B783B61BA7DF97D1B481346DB003E
:102EE0009B1A9B0003440B441B78FB60BB7D5B007B
:102EF0007A6813441B881A46FB7D42FA03F303F0F9
:102F00000103002B06D0FB68396901221846FEF741
:102F100083FD05E0FB68396900221846FEF77CFD59
:102F2000FB7D0133FB75FB7D0D2BC8D9BB7D0133C8
:102F3000BB75BB7D062BBFD90020FFF787FF00BF05
:102F40001837BD4680BD00BF0C0000200028B8BF68
:102F50004042704708B5074B044613B10021AFF358
:102F60000080054B1868836A03B19847204600F03B
:102F700031F800BF000000009C34000070B500254F
:102F80000C4E0D4CA41BA410A54209D100F024F84E
:102F900000250A4E0A4CA41BA410A54205D170BD01
:102FA00056F8253098470135EEE756F82530984712
:102FB0000135F2E73001002030010020300100200F
:102FC0003401002003460244934200D1704703F8C5
:102FD000011BF9E7FEE700BFF8B500BFF8BC08BC6D
:102FE0009E467047F8B500BFF8BC08BC9E467047C7
:102FF00001010507070304020302040605060D0E7E
:103000000E0E0D0D0D0D0E0E0E0E0D0D0101050710
:10301000070304020302040605060F1010100F0F29
:103020000F0F101010100F0F010105070703040206
:1030300003020406050611121212111111111212C7
:10304000121211110101050707030402030204060D
:103050000506131C1C1C131313131C1C1C1C13131C
:1030600000010507060203010302040604051D1EF4
:103070001E1E1D1D1D1D1E1E1E1E1D1D00010507E1
:10308000060203010302040604051F2020201F1F5F
:103090001F1F202020201F1F010105070703040216
:1030A00003020406050621222222212121212222B7
:1030B00022222121070502010306042323232323BF
:1030C00023230705020103060424242424242424A2
:1030D00007050201030604252525252525250705C5
:1030E00002010306042626262626262600010702BC
:1030F00006272727272700000000000000001312E2
:1031000011100F0E0D0C00000000212524260101D6
:103110000304040203020D0E0D0D0E0D0E0E01012F
:103120000304040203020F100F0F100F101001010F
:1031300003040402030211121111121112120101EF
:10314000030404020302131C13131C131C1C0001B0
:103150000203040103021D1E1D1D1E1D1E1E000173
:103160000203040103021F201F1F201F2020010152
:103170000304040203022122212122212222050725
:103180000704040605060E0E0D0D0E0E0D0D0507A7
:1031900007040406050610100F0F10100F0F050787
:1031A0000704040605061212111112121111050767
:1031B0000704040605061C1C13131C1C1313050727
:1031C0000603040604051E1E1D1D1E1E1D1D0507EB
:1031D00006030406040520201F1F20201F1F0507CB
:1031E00007040406050622222121222221210000B3
:1031F0003F0006005B004F0066006D007D00070089
:103200007F006F0077007C0039005E00790071005C
:103210004000000001000000030040000C0000001E
:103220000000000000000000633A5C70726F67727B
:10323000616D2066696C65735C73696D706C696340
:103240006974792073747564696F5C76345C646545
:1032500076656C6F7065725C73646B735C676563D5
:103260006B6F5F73646B5F73756974655C76322E28
:10327000375C706C6174666F726D5C656D6C6962F1
:103280005C696E635C656D5F636F6D6D6F6E2E68FC
:1032900000000000633A5C70726F6772616D2066B7
:1032A000696C65735C73696D706C696369747920AE
:1032B00073747564696F5C76345C646576656C6F95
:1032C0007065725C73646B735C6765636B6F5F736F
:1032D000646B5F73756974655C76322E375C706CF5
:1032E0006174666F726D5C656D6C69625C696E635A
:1032F0005C656D5F636D752E680000002E2E2F6576
:103300006D6C69622F656D5F636D752E63000000E3
:10331000633A5C70726F6772616D2066696C657389
:103320005C73696D706C696369747920737475641A
:10333000696F5C76345C646576656C6F7065725C31
:1033400073646B735C6765636B6F5F73646B5F73F0
:10335000756974655C76322E375C706C6174666F6B
:10336000726D5C656D6C69625C696E635C656D5FF6
:103370006770696F2E6800002E2E2F656D6C696274
:103380002F656D5F6770696F2E6300002E2E2F65AD
:103390006D6C69622F656D5F6C63642E6300000065
:1033A0002E2E2F656D6C69622F656D5F7379737456
:1033B000656D2E6300000000633A5C70726F677287
:1033C000616D2066696C65735C73696D706C6963AF
:1033D0006974792073747564696F5C76345C6465B4
:1033E00076656C6F7065725C73646B735C67656344
:1033F0006B6F5F73646B5F73756974655C76322E97
:10340000375C706C6174666F726D5C656D6C69625F
:103410005C696E635C656D5F74696D65722E6800D2
:103420002E2E2F656D6C69622F656D5F74696D65F9
:10343000722E6300633A5C70726F6772616D206612
:10344000696C65735C73696D706C6963697479200C
:1034500073747564696F5C76345C646576656C6FF3
:103460007065725C73646B735C6765636B6F5F73CD
:10347000646B5F73756974655C76322E375C706C53
:103480006174666F726D5C656D6C69625C696E63B8
:103490005C656D5F74696D65722E6800D0000020F8
:0434A0000000000028
:0834A40078CCFF7F010000005D
:1034AC00006CDC0200800000809FD5000101050744
:1034BC00070304020302040605060D0E0E0E0D0D85
:1034CC000D0D0E0E0E0E0D0D010105070703040266
:1034DC000302040605060F1010100F0F0F0F10102B
:1034EC0010100F0F01010507070304020302040665
:1034FC0005061112121211111111121212121111C0
:10350C000101050707030402030204060506131C48
:10351C001C1C131313131C1C1C1C13130001050778
:10352C00060203010302040604051D1E1E1E1D1DBA
:10353C001D1D1E1E1E1E1D1D00010507060203017A
:10354C000302040604051F2020201F1F1F1F20201C
:10355C0020201F1F010105070703040203020406B4
:10356C00050621222222212121212222222221216F
:10357C00000000000000000000000000000000003F
:10358C00000000000000000000000000000000002F
:10359C00000000000000000000000000000000001F
:1035AC00000000000000000000000000000000000F
:1035BC0000000000000000000000000000000000FF
:1035CC0000000000000000000000000000000000EF
:0835DC0001010000DD00000008
:040000030000019167
:00000001FF
