S01E000053544B333730305F6770696F696E746572727570745F322E7333378E
S11300000000022069020000950200009502000031
S11300109502000095020000950200009502000080
S11300209502000095020000950200009502000070
S11300309502000094020000950200009502000061
S113004095020000AD050000DD24000095020000CB
S11300509502000095020000950200009502000040
S1130060950200009502000095020000D5050000ED
S11300709502000095020000950200009502000020
S11300809502000095020000950200009502000010
S11300909502000095020000950200009502000000
S11300A095020000950200009502000095020000F0
S11300B095020000950200009502000095020000E0
S11300C095020000950200009502000095020000D0
S11300D095020000950200009502000010B5054C41
S11300E0237833B9044B13B10448AFF300800123E0
S11300F0237010BD4401002000000000502D0000BA
S113010008B5034B1BB103490348AFF3008008BD96
S11301100000000048010020502D0000154B002B6A
S113012008BF134B9D46A3F5803A00218B460F462A
S11301301348144A121A02F061FB0F4B002B00D033
S113014098470E4B002B00D0984700200021040054
S11301500D000D48002802D00C48AFF3008002F0D7
S113016029FB2000290002F0DFF902F00FFB00BF99
S11301700000080000000220000000000000000051
S113018044010020E0020020000000000000000004
S113019080B582B000AF03463960FB71FB79002B58
S11301A01FD0FB79012B19D0FB79022B13D0FB79DB
S11301B0032B0DD0FB79042B07D0FB79052B02D13F
S11301C041F6FF730FE000230DE04FF6FF730AE0E2
S11301D04FF6FF7307E04FF6FF7304E04FF6FF732B
S11301E001E04FF6FF733A68134103F00103002B5B
S11301F004D140F226410A4800F0A7FB01223B68E3
S113020002FA03F30749FA7918461346DB0013444C
S11302109B000B441833186000BF0837BD4680BDEF
S1130220282800000060004080B582B000AF7860EC
S11302307B68002B10DB7B68012B0DDC094A7B6893
S113024012F83300074A7B68DB0013445B681946E5
S1130250FFF79EFF002301E04FF0FF3318460837F5
S1130260BD4680BD90280000064880470649074ADD
S1130270074B9A42BEBF51F8040B42F8040BF8E74F
S1130280FFF74CFF0D0400005C2D0000000000206F
S113029044010020FEE700BF80B400AF034BDB6CD9
S11302A01B0EDBB21846BD4680BC7047B081E00F20
S11302B080B582B000AF00F01FF87860074B5B6830
S11302C003F00F037A6822FA03F37B60044A7B6825
S11302D013607B6818460837BD4680BD00800C401B
S11302E00800002080B400AF024B1846BD4680BC15
S11302F0704700BF006CDC0280B582B000AF334BA6
S1130300DB6A03F47053B3F5805F0AD0B3F5005F82
S113031003D0B3F5006F08D00BE02D4B1B687B6056
S113032047E04FF400437B6043E02A4B1B687B604B
S11303303FE0264BDB6803F4E063B3F5007F1BD09A
S1130340B3F5007F05D8002B24D0B3F5807F16D0F9
S11303502BE0B3F5806F09D0B3F5A06F03D0B3F5EC
S1130360407F06D021E01C4B7B6021E01B4B7B606F
S11303701EE01B4B7B601BE01A4B7B6018E0FFF711
S11303808BFF0346122B02D9174B7B6010E0174BEF
S11303907B600DE0FFF780FF0346122B02D9144B5C
S11303A07B6005E0134B7B6002E000237B6000BFB1
S11303B000BF064B1B689B0B03F0070301337A68ED
S11303C0B2FBF3F318460837BD4680BD00800C40ED
S11303D00400002000000020003FAB01406F4001FA
S11303E0809FD500C0D8A70040B56400C0CF6A0084
S11303F0804F120040420F0080B400AF024B1B68D4
S11304001846BD4680BC70470000002080B400AF91
S1130410034B044A9A6000BFBD4680BC704700BFCE
S113042000ED00E00000000080B483B000AF03469C
S1130430FB7197F90730002B0BDBFB7903F01F02EC
S1130440064997F907305B09012000FA02F241F8E6
S1130450232000BF0C37BD4680BC704700E100E09C
S113046080B483B000AF0346FB7197F90730002BCB
S11304700CDBFB7903F01F02074997F907305B098E
S1130480012000FA02F2603341F8232000BF0C3748
S1130490BD4680BC704700BF00E100E080B483B07B
S11304A000AF7860044A7B68C2F81C3100BF0C3787
S11304B0BD4680BC704700BF0060004080B483B07C
S11304C000AF074BD3F810317B60054BD3F81421F0
S11304D07B68134018460C37BD4680BC704700BF8C
S11304E00060004080B485B000AF78607B68FB603A
S11304F0FB6893FAA3F3BB60BB68B3FA83F3DBB284
S113050018461437BD4680BC704780B500AF0B2039
S1130510FFF7A6FF0B20FFF787FF0120FFF7A0FFDF
S11305200120FFF781FF00BF80BD000080B584B0CB
S113053000AF03463960FB7100F06EFFF860FB7991
S113054005493A6841F82320F86800F074FF00BFB9
S11305501037BD4680BD00BF6001002080B584B067
S113056000AF786019E07868FFF7BCFFF8600122FB
S1130570FB6802FA03F3DB431A467B6813407B6093
S1130580094AFB6852F82330BB60BB68002B04D0D7
S1130590FB68DAB2BB68104698477B68002BE2D14F
S11305A000BF1037BD4680BD6001002080B582B019
S11305B000AFFFF783FF024645F2555313407B60BB
S11305C07868FFF76BFF7868FFF7C8FF00BF08374C
S11305D0BD4680BD80B582B000AFFFF76FFF024615
S11305E04AF6AA2313407B607868FFF757FF7868C0
S11305F0FFF7B4FF00BF0837BD4680BD80B483B0A9
S113060000AF0346FB71FB79002B03D0054B01229D
S11306101A6602E0034B00221A6600BF0C37BD467F
S113062080BC704700A0084080B483B000AF7860FD
S113063000BF054B5A6E7B681340002BF9D100BFF5
S11306400C37BD4680BC704700A0084080B483B01E
S113065000AF7860054B9A6A7B68DB43034913401B
S11306608B6200BF0C37BD4680BC704700A00840B9
S113067080B500AF00222849002001F0A7FA00222B
S11306802549012001F0A2FA00222349022001F0A9
S11306909DFA00222049032001F098FA00221E4905
S11306A0042001F093FA00221B49052001F08EFA80
S11306B000221949062001F089FA00221649072070
S11306C001F084FA0022FF21002001F04BFB0022FC
S11306D0FF21012001F046FB0022FF21022001F04E
S11306E041FB0022FF21032001F03CFB0022FF21FB
S11306F0042001F037FB0022FF21052001F032FB2A
S11307000022FF21062001F02DFB0022FF210720FB
S113071001F028FB00BF80BD00F00FF080B582B06F
S113072000AF0346FB710121244800F015FC0321AE
S1130730234800F07BFC4021224800F08BFA012082
S113074000F0DEFD0121204800F006FC4FF0FF30F0
S1130750FFF77CFF1D4801F0B7F80121082001F0E4
S11307601BF90121102001F017F90121802001F06B
S113077013F901214FF4807001F00EF901214FF4B7
S1130780007001F009F9FB79002B0DD04FF44020E3
S113079001F0B0FB4FF4803001F0DCF80C4BDB6F60
S11307A00B4A43F00803D367FFF762FF4FF0FF30B3
S11307B0FFF73AFF00BF0837BD4680BDD0433E0077
S11307C002001E0080002A0000362C00C42A00000B
S11307D000800C4080B58AB000AF78607B6842F23C
S11307E00E72934202DD42F20F737B607B6813F555
S11307F07A7F01DC3D4B7B607B68002B06DA7868EE
S113080001F0C0FF78600123BB6101E00023BB61FC
S11308104FF0FF30FFF708FF0120FFF7EFFE00F075
S11308206DF80123FB6100233B6254E07A68FB69A5
S113083092FBF3F22E4B83FB02139910D317C91AC0
S11308400B469B000B445B00D11A0B46FB82BB6931
S1130850012B04D13B6A032B01D11023FB82FB8AB9
S1130860244A32F81330BB8200237B6227E02249FA
S11308703A6A1346DB009B1A5B00CA187B6A13446E
S1130880CB331B783B611C493A6A1346DB009B1A45
S11308905B00CA187B6A1344C4331B78FB60BA8AB2
S11308A07B6A42FA03F303F00103002B04D0012214
S11308B03969F86801F090F87B6A01337B627B6ADE
S11308C0062BD4DDFA6913469B0013445B00FB61DD
S11308D03B6A01333B623B6A032BA7DD0020FFF731
S11308E08DFE00BF2837BD4680BD00BF19FCFFFF49
S11308F067666666A02A0000A028000080B500AFE5
S113090000227821012001F02DFA00227821022012
S113091001F028FA00227821032001F023FA0022B2
S11309207821042001F01EFA00227821052001F02C
S113093019FA00227821062001F014FA0022782105
S1130940072001F00FFA00BF80BD80B483B000AF70
S113095078603960FEE780B487B000AFF860B960B2
S11309607A60FB6803F10473DA00BB6813449B00EC
S11309707B617B697A681A6000BF1C37BD4680BC06
S1130980704780B485B000AF786039607B6803F14C
S11309900473DA003B6813449B00FB60FB681B682C
S11309A018461437BD4680BC7047000080B584B03B
S11309B000AF78607B68002B03D07B68B3F5004FF1
S11309C004D940F6C2210748FFF7BFFF7B68B3FA9A
S11309D083F3DBB2C3F11F03FB60FB6818461037D7
S11309E0BD4680BD442B000080B400AF034BDB6CDC
S11309F01B0CDBB21846BD4680BC7047B081E00FCB
S1130A0080B582B000AFFFF7EFFF03464A2B04D056
S1130A10792B02D0482B23D024E0174B1B699BB2BF
S1130A201B029BB203F47C53FB80134B9B691B0991
S1130A301B0103F0F0039AB2FB881343FB800E4BB7
S1130A40DB691B0903F00F039AB2FB881343FB8095
S1130A50FB88B3F5017F01D3084B09E0084B07E09D
S1130A60074B05E04FF44A610648FFF76EFF002389
S1130A7018460837BD4680BDD0FF0FE000366E0132
S1130A800048E801AC2B000080B584B000AF78606A
S1130A900123FB60FFF7B4FF02467B68934204D84E
S1130AA00023FB600023BB600BE0FFF7A9FF0346B4
S1130AB05B007A689A4202D80123BB6001E00223FA
S1130AC0BB60FA681E210848FFF745FF064B5B68C8
S1130AD023F48072BB681B02034913434B6000BFBD
S1130AE01037BD4680BD00BF00800C4080B485B087
S1130AF000AF78603960204B5B6803F00703FB604C
S1130B00FB68012B01D9042B02D10023FB7202E004
S1130B100123FB7200BF7B68184A934207D9FB7A12
S1130B20002B01D0052300E00423FB6016E07B6862
S1130B30124A93420BD87B68114A934207D9FB7A35
S1130B40002B01D0032300E00123FB6006E0FB7AC5
S1130B50002B01D0022300E00023FB60064B5B68FE
S1130B6023F007020449FB6813434B6000BF1437AA
S1130B70BD4680BC704700BF00000C400048E8013F
S1130B800024F40080B582B000AF0E4BDB6B002B69
S1130B9014BF01230023FB710A4B41F67132DA635F
S1130BA0FFF7A0FB034600211846FFF79FFFFB79E0
S1130BB0002B02D0034B0022DA6300BF0837BD4686
S1130BC080BD00BF00000C4080B584B000AF7860E9
S1130BD039600C4BDB6B002B14BF01230023FB7328
S1130BE0084B41F67132DA6339687868FFF77EFFA3
S1130BF0FB7B002B02D0034B0022DA6300BF1037CB
S1130C00BD4680BD00000C4080B483B000AF786066
S1130C10094B5B6D03F00103002B07D100BF064BAA
S1130C201A6D7B681340002BF9D100E000BF0C372C
S1130C30BD4680BC704700BF00800C4080B400AF4C
S1130C4000BFBD4680BC704780B400AF00BFBD4646
S1130C5080BC704790B585B000AF786039607B6820
S1130C601B0903F00F03FB60FB68013B0C2B00F234
S1130C70598101A252F823F0AD0C0000250F0000A9
S1130C80250F0000EB0C0000250F0000250F0000CD
S1130C903D0D0000990D0000A50E0000250F000079
S1130CA0250F0000250F00001D0D00003B68002BE0
S1130CB002D03B68082B04D941F205319E48FFF766
S1130CC044FEFFF75FFF9D4B1B6823F4E0323B6853
S1130CD0013B9B03994913430B60FFF7E9FAB860A2
S1130CE00021B868FFF770FF22E13B68002B03D0B6
S1130CF03B68B3F5007F04D941F218318E48FFF701
S1130D0024FE3868FFF752FE38608C4B9B6823F052
S1130D100F028A493B6813438B6009E13868FFF787
S1130D2045FE0346013B3B60844B5B6823F48072C1
S1130D303B681B02814913434B60F9E03B68002B7D
S1130D4003D03B68B3F5007F04D941F22E317A48D1
S1130D50FFF7FBFDFFF716FFFFF7AAFA02463B6811
S1130D60B2FBF3F31846FFF78FFE3868FFF71EFE59
S1130D703860724B5B6823F00F0270493B68134381
S1130D804B60FFF795FAB8600021B868FFF71CFFC5
S1130D90B868FFF779FECBE07B68694A934227D0B5
S1130DA0674A934203D8674A934207D073E0664A7E
S1130DB0934237D0654A934255D06CE03B68B3F513
S1130DC0004F04D941F24C315B48FFF7BEFD0420CB
S1130DD0FFF71AFF3868FFF7E9FD3860574B9B6E41
S1130DE023F0F0023B681B01544913438B6658E01F
S1130DF03B68B3F5004F04D941F25A314E48FFF72E
S1130E00A4FD0420FFF700FF3868FFF7CFFD38602A
S1130E104A4B9B6E23F470623B681B0247491343A1
S1130E208B663EE03B680F2B02D93B68802B04D9CC
S1130E3041F269314048FFF788FD0420FFF7E4FEE2
S1130E403868FFF7B3FD38603C4B9B6E23F4405485
S1130E501020FFF7ABFD02463B689B1A1B03374A81
S1130E60234393661DE03B68082B04D941F2793192
S1130E703148FFF76AFD0420FFF7C6FE3868FFF724
S1130E8095FD38602D4B9B6E23F003022B493B6884
S1130E9013438B6605E041F287312748FFF755FD80
S1130EA000BF45E07B682A4A934203D0294A934213
S1130EB018D030E03B68082B04D941F290311E4829
S1130EC0FFF743FD4020FFF79FFE3868FFF76EFDF4
S1130ED038601A4B1B6F23F0030218493B68134315
S1130EE00B671EE03B68082B04D941F29F3112487E
S1130EF0FFF72BFD4020FFF787FE3868FFF756FD0C
S1130F0038600E4B1B6F23F030023B681B010B490A
S1130F1013430B6705E041F2AD310748FFF715FDB8
S1130F2000BF05E041F2B3310348FFF70EFD00BFF7
S1130F3000BF1437BD4690BDAC2B000000800C40B0
S1130F40802616008016120080002A0080062E00DB
S1130F5090071A0090171C0080B586B000AF786027
S1130F600B46FB7000233B617B681B0A03F00F03F5
S1130F70013B092B32D801A252F823F0B70F00002D
S1130F80BD0F0000A50F0000DD0F0000DD0F000005
S1130F90C30F0000CD0F0000DD0F0000DD0F0000C7
S1130FA0D70F00001A4B7B61FFF782F903461846FE
S1130FB0FFF76AFD18E0174B7B6115E0164B7B6168
S1130FC012E0164B7B6101233B610DE0144B7B6106
S1130FD010233B6108E0134B7B6105E041F239418A
S1130FE01148FFF7B2FC10E07B681B0B03F01F03F2
S1130FF0FB603B69002B02D03869FFF705FEFB78E4
S11310001A46F9687869FFF7A6FC1837BD4680BD13
S113101040800C4008800C4044800C4058800C40B8
S113102060800C4078800C40AC2B000080B588B008
S113103000AF78600B46FB700323FB610323FB7650
S113104000233B617B6803F00F03FB60FB68013BFB
S1131050062B00F2438101A252F823F0791000001C
S11310606711000067110000DD120000DD120000AE
S1131070351200006B120000FB78023B082B52D89B
S113108001A252F823F000BFAD100000B710000019
S1131090C1100000031100002711000027110000F7
S11310A027110000271100001B1100000423FB611D
S11310B00023FB763DE00323FB610123FB7638E04C
S11310C00223FB610223FB76FFF79AFC03460133FC
S11310D01846FFF7D9FCFFF78FF90246844B9A4272
S11310E006D9844B1B68834A43F06003136020E0F5
S11310F0804B1B6823F060037E4A43F02003136097
S113110017E00123FB610323FB76FFF779FC034619
S113111001331846FFF7B8FC0BE041F64A21764844
S1131120FFF713FCE0E041F64F217348FFF70DFC95
S1131130DAE0FB7E01220121184600F009F9FFF7ED
S113114021FDFFF77BFD6B4AFB695362FFF7B0F8A3
S1131150B860B868FFF798FC0021B868FFF734FD61
S1131160FFF772FDC0E0FB78013B092B3CD801A2DC
S113117052F823F09D110000A3110000B3110000E8
S1131180E9110000E9110000C3110000E911000099
S1131190E9110000E9110000DF11000000237B6168
S11311A028E001220121002000F0D2F802237B6113
S11311B020E001220121012000F0CAF801237B6113
S11311C018E0FFF775F8B860B868FFF75DFC012216
S11311D004214A48FFF7BFFB03237B610AE0002395
S11311E07B6101233B6105E041F6F8214248FFF7AA
S11311F0ACFB79E0FB68022B0DD13E4B9B6A23F4D8
S1131200803323F003037A691A433B691B04394989
S113121013438B6268E0374B9B6A23F4801323F0FB
S11312200C037A6992001A433B691B053149134345
S11312308B6259E0FB78072B02D0092B07D00DE015
S11312402C4B1B682B4A23F0805313600CE0294B72
S11312501B68284A43F08053136005E041F653317C
S11312602548FFF772FB3FE03EE0FB78032B13D0E9
S1131270092B21D0022B2AD101220121002000F0C8
S113128067F81C4B40225A6200BF1A4BDB6A03F416
S11312908033002BF9D020E001220121012000F04D
S11312A057F8144B60225A6200BF124BDB6A03F4F6
S11312B00033002BF9D010E00E4B20225A6200BFFD
S11312C00C4BDB6A03F40043002BF9D005E041F634
S11312D092310948FFF739FB06E005E041F6884101
S11312E00548FFF732FB00BF2037BD4680BD00BF75
S11312F00048E80100800C40AC2B000040800C400A
S113130080B582B000AF78607B68802B04D941F649
S1131310D8710D48FFF719FB0C4B9B6D03F00803C4
S1131320002B0CD17B6803F007037B60074BDB6F5A
S113133023F0070205497B681343CB6700E000BF35
S11313400837BD4680BD00BFAC2B000000800C40B8
S113135080B586B000AF0346FB710B46BB711346E4
S11313607B71FB79042B32D801A252F823F000BF21
S1131370BD130000AF130000931300008513000099
S1131380A113000001233B610223FB6001237B6165
S113139023E004233B610823FB6003237B611CE0FF
S11313A010233B612023FB6005237B6115E0402370
S11313B03B618023FB6007237B610EE04FF4807365
S11313C03B614FF40073FB6009237B6105E042F24B
S11313D08E010E48FFF7B9FA14E0BB79002B0ED04A
S11313E00B4A3B6913627B79002B0BD000BF7969F0
S11313F00848FFF7C6FA0346002BF8D002E0044A77
S1131400FB6813621837BD4680BD00BFAC2B0000DB
S113141000800C402C800C4080B483B000AFEFF30C
S113142010833B603B687B6072B67B6818460C3760
S1131430BD4680BC704780B483B000AF78607B68E1
S1131440002B00D162B600BF0C37BD4680BC70478C
S113145080B487B000AFF860B9607A60FB6803F1CC
S11314600473DA00BB6813449B007B617B697A6870
S11314701A6000BF1C37BD4680BC704780B485B07D
S113148000AFF860B9607A60FB681A68BB68DB4338
S11314901A407B681A43FB681A6000BF1437BD46C4
S11314A080BC704780B483B000AF7860044A7B6826
S11314B0C2F81C3100BF0C37BD4680BC704700BF6A
S11314C00060004080B582B000AF03463960FB7114
S11314D0FB79002B1FD0FB79012B19D0FB79022B50
S11314E013D0FB79032B0DD0FB79042B07D0FB79A8
S11314F0052B02D141F6FF730FE000230DE04FF6F8
S1131500FF730AE04FF6FF7307E04FF6FF7304E042
S11315104FF6FF7301E04FF6FF733A68134103F08F
S11315200103002B04D14FF477710A48FFF70DFA39
S113153001223B6802FA03F30749FA791846134675
S1131540DB0013449B000B441433186000BF0837BE
S1131550BD4680BDC02B00000060004080B582B055
S113156000AF03463960FB71FB79002B1FD0FB7978
S1131570012B19D0FB79022B13D0FB79032B0DD04F
S1131580FB79042B07D0FB79052B02D141F6FF73BD
S11315900FE000230DE04FF6FF730AE04FF6FF73F0
S11315A007E04FF6FF7304E04FF6FF7301E04FF6D8
S11315B0FF733A68134103F00103002B04D140F296
S11315C00B410A48FFF7C1F901223B6802FA03F311
S11315D00749FA7918461346DB0013449B000B4471
S11315E01033186000BF0837BD4680BDC02B000013
S11315F00060004080B586B000AFB9607A601A46DA
S11316000346FB731346BB7300237B61FB7B002BF8
S11316101FD0FB7B012B19D0FB7B022B13D0FB7B50
S1131620032B0DD0FB7B042B07D0FB7B052B02D1B6
S113163041F6FF730FE000230DE04FF6FF730AE05D
S11316404FF6FF7307E04FF6FF7304E04FF6FF73A6
S113165001E04FF6FF73BA68134103F00103002B56
S113166003D1C4212248FFF770F97B68072B0ED8F9
S11316707B689B00072202FA03F1FA7B7B689B00DC
S113168002FA03F31A461B48FFF7F8FE10E07B68E2
S1131690083B7B617B699B00072202FA03F1FA7B1A
S11316A07B699B0002FA03F31A461348FFF7E6FE30
S11316B0BB7B1A4679681148FFF7CAFE97F82030B9
S11316C01A4679680E48FFF7C3FE01227B6802FAC6
S11316D003F31846FFF7E6FE97F824301A467968B4
S11316E00848FFF7B5FE00BF1837BD4680BD00BFF0
S11316F0282C0000006100400461004008610040A3
S11317000C6100401061004080B584B000AFB96046
S11317107B600346FB731346BB73FB7B002B1FD01C
S1131720FB7B012B19D0FB7B022B13D0FB7B032B00
S11317300DD0FB7B042B07D0FB7B052B02D141F69C
S1131740FF730FE000230DE04FF6FF730AE04FF63E
S1131750FF7307E04FF6FF7304E04FF6FF7301E0F9
S11317604FF6FF73BA68134103F00103002B04D151
S113177040F21B113948FFF7E8F8BB7B002B0DD072
S11317807B68002B05D0FB7BB9681846FFF7E6FEA3
S113179004E0FB7BB9681846FFF794FEBB68072B8F
S11317A020D82F49FA7B1346DB0013449B000B44DB
S11317B004331A68BB689B000F2101FA03F3DB436F
S11317C01340B97BBA68920001FA02F21146244828
S11317D0FA7B19431346DB0013449B000344043390
S11317E0196025E01E49FA7B1346DB0013449B0075
S11317F00B4408331A68BB6803F18043083B9B0021
S11318000F2101FA03F3DB4302EA0301BA7BBB684D
S113181003F18043083B9B0002FA03F31048FA7B70
S113182019431346DB0013449B0003440833196037
S1131830BB7B002B0DD17B68002B05D0FB7BB968EB
S11318401846FFF78BFE04E0FB7BB9681846FFF7E8
S113185039FE00BF1037BD4680BD00BF282C0000F4
S11318600060004080B483B000AF0346FB71FB7995
S1131870002B06D0084B1B68074A43F00103136092
S113188005E0054B1B68044A23F00103136000BF05
S11318900C37BD4680BC704700A0084080B487B0B8
S11318A000AFF860B9607A60FB6803F10473DA0092
S11318B0BB6813449B007B617B697A681A6000BF34
S11318C01C37BD4680BC704780B584B000AF7860DB
S11318D01E4B5B68FB607B68002B03D145211C48D1
S11318E0FFF733F80020FFF7BDFFFB6823F4830301
S11318F023F01F03FB607B685B68FA681343FB609B
S11319007B681B7A1A46FB681343FB607B685B7A2F
S11319101A46FB681343FB607B68DB68FA68134371
S1131920FB607B681B8A1A46FB681343FB60074A0B
S1131930FB6853607B681B78002B02D00120FFF703
S113194091FF00BF1037BD4680BD00BF00A0084016
S11319503C2C000080B485B000AF78600D4B5B6810
S1131960FB60FB6823F48033FB607B68002B08D0AA
S1131970B3F5803F00D005E0FB6843F48033FB609F
S113198000E000BF034AFB68536000BF1437BD4644
S113199080BC704700A0084080B483B000AF034609
S11319A00A46FB8013467B717B79002B06D0094BDA
S11319B09A68FB88074913438B6006E0054B9A68D5
S11319C0FB88DB43034913408B6000BF0C37BD46E3
S11319D080BC704700A0084080B584B000AFF860B8
S11319E0B9601346FB71FB68072B04DD40F2171145
S11319F06548FEF7AAFFBB68272B04DD4FF48F71FF
S1131A006148FEF7A2FFFB68072B00F2B38001A236
S1131A1052F823F0351A00005D1A0000851A000000
S1131A20AD1A0000D51A0000FD1A0000251B0000A5
S1131A304D1B0000BB681F2B06DCBB68FA791946F6
S1131A405248FFF72BFF9BE0BB68203BBB60BB68A1
S1131A50FA7919464E48FFF721FF91E0BB681F2B26
S1131A6006DCBB68FA7919464A48FFF717FF87E096
S1131A70BB68203BBB60BB68FA7919464648FFF750
S1131A800DFF7DE0BB681F2B06DCBB68FA791946A5
S1131A904248FFF703FF73E0BB68203BBB60BB68B1
S1131AA0FA7919463E48FFF7F9FE69E0BB681F2B37
S1131AB006DCBB68FA7919463A48FFF7EFFE5FE0A7
S1131AC0BB68203BBB60BB68FA7919463648FFF710
S1131AD0E5FE55E0BB681F2B06DCBB68FA791946A6
S1131AE03248FFF7DBFE4BE0BB68203BBB60BB68C2
S1131AF0FA7919462E48FFF7D1FE41E0BB681F2B47
S1131B0006DCBB68FA7919462A48FFF7C7FE37E0B6
S1131B10BB68203BBB60BB68FA7919462648FFF7CF
S1131B20BDFE2DE0BB681F2B06DCBB68FA791946A5
S1131B302248FFF7B3FE23E0BB68203BBB60BB68D1
S1131B40FA7919461E48FFF7A9FE19E0BB681F2B56
S1131B5006DCBB68FA7919461A48FFF79FFE0FE0C6
S1131B60BB68203BBB60BB68FA7919461648FFF78F
S1131B7095FE05E04FF4C4710348FEF7E6FE00BF8E
S1131B8000BF1037BD4680BD3C2C000040A008407B
S1131B9050A0084044A0084054A0084048A0084071
S1131BA058A008404CA008405CA00840CCA00840C5
S1131BB0B4A00840D0A00840B8A00840D4A0084071
S1131BC0BCA00840D8A00840C0A0084080B586B09A
S1131BD000AFF860B9607A60FB68072B04DD40F25F
S1131BE0A1115E48FEF7B1FEFB68072B00F2AC8042
S1131BF001A252F823F000BF191C00003D1C000094
S1131C00611C0000851C0000A91C0000D11C000000
S1131C10F91C0000211D0000514B1B6C7B61BB684B
S1131C20DB437A6913407B61BA687B6813407A6945
S1131C3013437B614A4A7B6913648BE0484B5B6CBA
S1131C407B61BB68DB437A6913407B61BA687B685C
S1131C5013407A6913437B61414A7B69536479E099
S1131C603F4B9B6C7B61BB68DB437A6913407B61B0
S1131C70BA687B6813407A6913437B61384A7B698D
S1131C80936467E0364BDB6C7B61BB68DB437A694A
S1131C9013407B61BA687B6813407A6913437B61A4
S1131CA02F4A7B69D36455E02D4BD3F8CC307B614C
S1131CB0BB68DB437A6913407B61BA687B68134075
S1131CC07A6913437B61264A7B69C2F8CC3041E0D0
S1131CD0234BD3F8D0307B61BB68DB437A69134074
S1131CE07B61BA687B6813407A6913437B611C4A41
S1131CF07B69C2F8D0302DE0194BD3F8D4307B6126
S1131D00BB68DB437A6913407B61BA687B68134024
S1131D107A6913437B61124A7B69C2F8D43019E0B3
S1131D200F4BD3F8D8307B61BB68DB437A6913402F
S1131D307B61BA687B6813407A6913437B61084A04
S1131D407B69C2F8D83005E040F2E1110348FEF7A0
S1131D50FCFD00BF00BF1837BD4680BD3C2C000011
S1131D6000A0084080B586B000AFF860B9607A6022
S1131D70FB68072B04DD40F2F9115C48FEF7E5FD32
S1131D80FB68072B00F2AC8001A252F823F000BFDD
S1131D90B11D0000D51D0000F91D00001D1E00002E
S1131DA0411E0000691E0000911E0000B91E0000C3
S1131DB04F4B1B6D7B61BB68DB437A6913407B61CE
S1131DC0BA687B6813407A6913437B61484A7B692C
S1131DD0136586E0464B5B6D7B61BB68DB437A69C8
S1131DE013407B61BA687B6813407A6913437B6153
S1131DF03F4A7B69536574E03D4B9B6D7B61BB68D7
S1131E00DB437A6913407B61BA687B6813407A6963
S1131E1013437B61364A7B69936562E0344BDB6D27
S1131E207B61BB68DB437A6913407B61BA687B687A
S1131E3013407A6913437B612D4A7B69D36550E073
S1131E402B4BD3F8B4307B61BB68DB437A69134016
S1131E507B61BA687B6813407A6913437B61244AC7
S1131E607B69C2F8B4303CE0214BD3F8B8307B61D5
S1131E70BB68DB437A6913407B61BA687B681340B3
S1131E807A6913437B611A4A7B69C2F8B83028E047
S1131E90174BD3F8BC307B61BB68DB437A691340D2
S1131EA07B61BA687B6813407A6913437B61104A8B
S1131EB07B69C2F8BC3014E00D4BD3F8C0307B61B1
S1131EC0BB68DB437A6913407B61BA687B68134063
S1131ED07A6913437B61064A7B69C2F8C03000E02B
S1131EE000BF00BF1837BD4680BD00BF3C2C0000BA
S1131EF000A0084080B483B000AF7860064B5B68F4
S1131F0023F4E01204497B6813434B6000BF0C3791
S1131F10BD4680BC704700BF00A0084080B584B0B7
S1131F2000AF78607B68002B03D146211B48FEF785
S1131F300CFD1B4B5B69DBB29B00DBB203F03C0383
S1131F40FB73174B1B699B09DBB203F00303DAB283
S1131F50FB7B1343FB737B68FA7B9A70104B1B6902
S1131F60DBB203F03F03DAB27B685A700C4B9B6917
S1131F701B09DBB21B01FB73094BDB691B09DBB2D9
S1131F8003F00F03DAB2FB7B1343FB737B68FA7B2A
S1131F901A7000BF1037BD4680BD00BF502C000032
S1131FA0D0FF0FE080B483B000AF78607B680D4A47
S1131FB093420BD07B680C4A934207D07B680B4A50
S1131FC0934203D07B680A4A934201D1012300E083
S1131FD0002303F00103DBB218460C37BD4680BC76
S1131FE0704700BF000001400004014000080140A8
S1131FF0000C014080B584B000AF78603960786827
S1132000FFF7D0FF0346002B03D19F213748FEF78B
S11320109CFC0023FB603B681B7883F00103DBB26C
S1132020002B02D07B6802225A607B6800225A622D
S11320303B689B781A063B68DB781B041A433B68B1
S11320409B799B021A433B68DB791B0213433A6872
S1132050127A13433A685278002A01D0402200E0F1
S1132060002213433A68527A002A01D0802200E009
S1132070002213433A68927A002A01D0202200E019
S1132080002213433A68D27A002A01D0102200E0D9
S1132090002213433A68127B002A01D0082200E090
S11320A000221343FB603B681B79002B02D04FF4E2
S11320B0005200E000223B685B79002B02D04FF015
S11320C0805300E000231343FA681343FB607B68EA
S11320D0FA681A603B681B78002B02D07B680122E7
S11320E05A6000BF1037BD4680BD00BFD02C000031
S11320F080B485B000AFF860B9607A60BB6803F162
S11321000053013BDB00FA681A44BB68DB00F96842
S11321100B4412681A60BB6803F10053013BDB00F7
S1132120FA681A44BB68DB00F9680B4412791A7127
S11321307B6803221A607B6867221A7100BF143718
S1132140BD4680BC704780B586B000AFF860B9600A
S11321507A603B600023FB757B681A683B681B68E8
S11321609A420ED17B681A793B681B799A4208D14E
S1132170BB681B683A681946F868FFF7B9FF012382
S1132180FB75BB681B68013B3B611CE03B6903F1C9
S11321900053013BDB00FA681A443B69DB00F96831
S11321A00B4412681A603B6903F10053013BDB00E6
S11321B0FA681A443B69DB00F9680B4412791A7116
S11321C03B69013B3B613B69002BDFDC7B681A68A0
S11321D0FB681A607B681A79FB681A717B681B6854
S11321E05A1C7B681A607B681B68082B02D17B68C9
S11321F001221A60FB7D002B05D0BB681B685A1CAA
S1132200BB681A6000BF00BF1837BD4680BD000020
S113221080B483B000AF78600B46FB70FB78613B01
S1132220062B4CD801A252F823F000BF492200002B
S1132230BF220000BF22000085220000712200009E
S11322405D220000992200007B685A1E1E4911F885
S1132250123043F0010301F8123030E07B685A1E5B
S1132260194911F8123043F0200301F8123026E026
S11322707B685A1E144911F8123043F0100301F818
S113228012301CE07B685A1E0F4911F8123043F0DB
S1132290080301F8123012E07B685A1E0A4911F84B
S11322A0123043F0400301F812307B68013B064AC8
S11322B05B0013445A7842F004025A7000BF00BF16
S11322C00C37BD4680BC7047D002002080B586B074
S11322D000AFF860B9607A60B868FEF77BFA002353
S11322E07B6107E0194A7B69002122F813107B699E
S11322F001337B617B69062BF4DD7B681A687B689C
S11323001B7919461046FFF783FF104800F0E2F9E5
S113231000233B610FE03B69DB00FA681344186853
S11323203B69DB00FA6813441B791946FFF770FF19
S11323303B6901333B613A69BB689A42EBDB034872
S113234000F0C8F900BF1837BD4680BDD002002098
S113235080B483B000AF0346FB7197F90730002BBC
S11323600BDBFB7903F01F02064997F907305B0981
S1132370012000FA02F241F8232000BF0C37BD46C9
S113238080BC704700E100E080B400AF034BDB6C1D
S11323901B0EDBB21846BD4680BC7047B081E00F0F
S11323A080B584B002AF396011461A460346FB710A
S11323B00B46BB7113467B71BA79F8793B7C019368
S11323C07B79009313463A683968FFF713F900BF25
S11323D00837BD4680BD000080B582B000AF0E4B0B
S11323E001221A64FFF7D0FF0346FB713B1D184618
S11323F0FFF794FDFB790F2B0AD93B79022B07D900
S1132400064B1B6823F05003044A43F01003136087
S113241000BF0837BD4680BD00000C40C0800C40A2
S113242080B483B000AF78604FF6FF7318460C3762
S1132430BD4680BC7047000080B582B000AF7860B4
S113244039607868FFF7ECFF02463B68934204D991
S113245040F221310448FEF778FA7B683A685A6200
S113246000BF0837BD4680BDE42C000080B483B0B3
S113247000AF786039607B683A689A6100BF0C37B6
S1132480BD4680BC704780B483B000AF78603960CB
S11324907B68DA683B681A437B68DA6000BF0C37F4
S11324A0BD4680BC7047000080B582B000AF786044
S11324B039607868FFF7B4FF02463B68934204D959
S11324C040F269410448FEF740FA7B683A68DA61F1
S11324D000BF0837BD4680BDE42C000080B500AFC6
S11324E0044B01221A7001210348FFF7BFFF00BF0C
S11324F080BD00BFDE0200200000014080B582B034
S113250000AF0346FB71FB79092B03D10120FDF7D2
S11325108BFE05E0FB790A2B02D10020FDF784FE37
S113252000BF0837BD4680BD80B588B002AFFFF755
S113253053FF0020FEF7F2F801214848FEF70CFD96
S1132540FDF7E3FF0023012209210120FFF7DCF856
S1132550002301220A210120FFF7D6F8404909206F
S1132560FDF7E4FF3E490A20FDF7E0FF0123009355
S11325700123002209210120FFF712FF0123009308
S1132580012300220A210120FFF70AFF0121354817
S1132590FEF760FB01213448FEF7DEFC3B1D002200
S11325A01A605A609A601A7301233B710823BB7145
S11325B03B1D19462D48FFF71DFD00212B48FFF751
S11325C03BFF4DF29F512948FFF76EFF0121274839
S11325D0FFF74CFF01212548FFF755FF0220FFF7C5
S11325E0B7FE234B01221A60214B67221A71022382
S11325F07B610DE01E4A7B69002142F833101C4ABE
S11326007B69DB00134430221A717B6901337B61DF
S11326107B69242BEEDD174B03221A60154B6722CE
S11326201A71154B1B68134A19461148FFF74EFEE1
S1132630124B1B78002BFBD0104B00221A700D4B51
S11326400F4A0D490A48FFF77EFD0B4B1B68094AE8
S113265019460748FFF73AFEEAE700BF00D2040034
S1132660FD240000408104000052040000000140E9
S1132670A8010020A001002014000020DE02002098
S11326800C00002080B483B000AF0346FB71FB79DB
S1132690002B03D0054B01221A6602E0034B0022F3
S11326A01A6600BF0C37BD4680BC704700A00840C6
S11326B080B483B000AF786000BF054B5A6E7B686E
S11326C01340002BF9D100BF0C37BD4680BC7047C6
S11326D000A0084080B586B000AF78604FF0FF30AE
S11326E0FFF7E6FF0120FFF7CDFF0023BB753CE0B9
S11326F00023FB7533E0BA7DF97D21481346DB00E6
S11327009B1A9B0003440B440E331B783B61BA7D38
S1132710F97D1B481346DB009B1A9B0003440B44C2
S11327201B78FB60BB7D5B007A6813441B881A46E8
S1132730FB7D42FA03F303F00103002B06D0FB6890
S1132740396901221846FFF747F905E0FB68396942
S113275000221846FFF740F9FB7D0133FB75FB7D32
S11327600D2BC8D9BB7D0133BB75BB7D062BBFD9EF
S11327700020FFF787FF00BF1837BD4680BD00BFAC
S1132780180000200028B8BF4042704708B5074B26
S1132790044613B10021AFF30080054B1868836A27
S11327A003B19847204600F031F800BF0000000054
S11327B04C2D000070B500250C4E0D4CA41BA4102C
S11327C0A54209D100F024F800250A4E0A4CA41BA6
S11327D0A410A54205D170BD56F82530984701359F
S11327E0EEE756F8253098470135F2E73C01002022
S11327F03C0100203C01002040010020034602442B
S1132800934200D1704703F8011BF9E7FEE700BFCC
S1132810F8B500BFF8BC08BC9E467047F8B500BFC9
S1132820F8BC08BC9E467047633A5C70726F67726E
S1132830616D2066696C65735C73696D706C696346
S11328406974792073747564696F5C76345C64654B
S113285076656C6F7065725C73646B735C676563DB
S11328606B6F5F73646B5F73756974655C76322E2E
S1132870375C706C6174666F726D5C656D6C6962F7
S11328805C696E635C656D5F6770696F2E680000DC
S11328900400000002000000040000000300000027
S11328A001010507070304020302040605060D0ED1
S11328B00E0E0D0D0D0D0E0E0E0E0D0D0101050764
S11328C0070304020302040605060F1010100F0F7D
S11328D00F0F101010100F0F01010507070304025A
S11328E0030204060506111212121111111112121B
S11328F01212111101010507070304020302040661
S11329000506131C1C1C131313131C1C1C1C13136F
S113291000010507060203010302040604051D1E47
S11329201E1E1D1D1D1D1E1E1E1E1D1D0001050734
S1132930060203010302040604051F2020201F1FB2
S11329401F1F202020201F1F010105070703040269
S1132950030204060506212222222121212122220A
S11329602222212107050201030604232323232312
S113297023230705020103060424242424242424F5
S11329800705020103060425252525252525070518
S1132990020103060426262626262626000107020F
S11329A00627272727270000000000000000131235
S11329B011100F0E0D0C000000002125242601012A
S11329C00304040203020D0E0D0D0E0D0E0E010183
S11329D00304040203020F100F0F100F1010010163
S11329E00304040203021112111112111212010143
S11329F0030404020302131C13131C131C1C000104
S1132A000203040103021D1E1D1D1E1D1E1E0001C6
S1132A100203040103021F201F1F201F20200101A5
S1132A200304040203022122212122212222050778
S1132A300704040605060E0E0D0D0E0E0D0D0507FA
S1132A4007040406050610100F0F10100F0F0507DA
S1132A5007040406050612121111121211110507BA
S1132A600704040605061C1C13131C1C131305077A
S1132A700603040604051E1E1D1D1E1E1D1D05073E
S1132A8006030406040520201F1F20201F1F05071E
S1132A900704040605062222212122222121000006
S1132AA03F0006005B004F0066006D007D000700DC
S1132AB07F006F0077007C0039005E0079007100B0
S1132AC04000000001000000030040000C00000072
S1132AD00000000000000000633A5C70726F6772CF
S1132AE0616D2066696C65735C73696D706C696394
S1132AF06974792073747564696F5C76345C646599
S1132B0076656C6F7065725C73646B735C67656328
S1132B106B6F5F73646B5F73756974655C76322E7B
S1132B20375C706C6174666F726D5C656D6C696244
S1132B305C696E635C656D5F636F6D6D6F6E2E684F
S1132B4000000000633A5C70726F6772616D20660A
S1132B50696C65735C73696D706C69636974792001
S1132B6073747564696F5C76345C646576656C6FE8
S1132B707065725C73646B735C6765636B6F5F73C2
S1132B80646B5F73756974655C76322E375C706C48
S1132B906174666F726D5C656D6C69625C696E63AD
S1132BA05C656D5F636D752E680000002E2E2F65C9
S1132BB06D6C69622F656D5F636D752E6300000037
S1132BC0633A5C70726F6772616D2066696C6573DD
S1132BD05C73696D706C696369747920737475646E
S1132BE0696F5C76345C646576656C6F7065725C85
S1132BF073646B735C6765636B6F5F73646B5F7344
S1132C00756974655C76322E375C706C6174666FBE
S1132C10726D5C656D6C69625C696E635C656D5F49
S1132C206770696F2E6800002E2E2F656D6C6962C7
S1132C302F656D5F6770696F2E6300002E2E2F6500
S1132C406D6C69622F656D5F6C63642E63000000B8
S1132C502E2E2F656D6C69622F656D5F73797374A9
S1132C60656D2E6300000000633A5C70726F6772DA
S1132C70616D2066696C65735C73696D706C696302
S1132C806974792073747564696F5C76345C646507
S1132C9076656C6F7065725C73646B735C67656397
S1132CA06B6F5F73646B5F73756974655C76322EEA
S1132CB0375C706C6174666F726D5C656D6C6962B3
S1132CC05C696E635C656D5F74696D65722E680026
S1132CD02E2E2F656D6C69622F656D5F74696D654D
S1132CE0722E6300633A5C70726F6772616D206666
S1132CF0696C65735C73696D706C69636974792060
S1132D0073747564696F5C76345C646576656C6F46
S1132D107065725C73646B735C6765636B6F5F7320
S1132D20646B5F73756974655C76322E375C706CA6
S1132D306174666F726D5C656D6C69625C696E630B
S1132D405C656D5F74696D65722E6800DC0000203F
S1072D50000000007B
S10B2D54C8D3FF7F0100000059
S1132D5C006CDC0200800000809FD50002000000A3
S1132D6C67000000010000000101050707030402CD
S1132D7C0302040605060D0E0E0E0D0D0D0D0E0EA2
S1132D8C0E0E0D0D010105070703040203020406D0
S1132D9C05060F1010100F0F0F0F101010100F0F3F
S1132DAC01010507070304020302040605061112B8
S1132DBC1212111111111212121211110101050723
S1132DCC07030402030204060506131C1C1C13133C
S1132DDC13131C1C1C1C131300010507060203010E
S1132DEC0302040604051D1E1E1E1D1D1D1D1E1E94
S1132DFC1E1E1D1D00010507060203010302040625
S1132E0C04051F2020201F1F1F1F202020201F1FF0
S1132E1C0101050707030402030204060506212227
S1132E2C2222212121212222222221210000000000
S1132E3C0000000000000000000000000000000082
S1132E4C0000000000000000000000000000000072
S1132E5C0000000000000000000000000000000062
S1132E6C0000000000000000000000000000000052
S1132E7C0000000000000000000000000000000042
S1132E8C0000000000000000000000000101000030
S1072E9CDD00000051
S903026991
